{
  "_format": "hh-sol-artifact-1",
  "contractName": "ContentNFT",
  "sourceName": "contracts/ContentNFT.sol",
  "abi": [
    {
      "inputs": [],
      "stateMutability": "nonpayable",
      "type": "constructor"
    },
    {
      "anonymous": false,
      "inputs": [
        {
          "indexed": true,
          "internalType": "address",
          "name": "owner",
          "type": "address"
        },
        {
          "indexed": true,
          "internalType": "address",
          "name": "approved",
          "type": "address"
        },
        {
          "indexed": true,
          "internalType": "uint256",
          "name": "tokenId",
          "type": "uint256"
        }
      ],
      "name": "Approval",
      "type": "event"
    },
    {
      "anonymous": false,
      "inputs": [
        {
          "indexed": true,
          "internalType": "address",
          "name": "owner",
          "type": "address"
        },
        {
          "indexed": true,
          "internalType": "address",
          "name": "operator",
          "type": "address"
        },
        {
          "indexed": false,
          "internalType": "bool",
          "name": "approved",
          "type": "bool"
        }
      ],
      "name": "ApprovalForAll",
      "type": "event"
    },
    {
      "anonymous": false,
      "inputs": [
        {
          "indexed": false,
          "internalType": "uint256",
          "name": "_fromTokenId",
          "type": "uint256"
        },
        {
          "indexed": false,
          "internalType": "uint256",
          "name": "_toTokenId",
          "type": "uint256"
        }
      ],
      "name": "BatchMetadataUpdate",
      "type": "event"
    },
    {
      "anonymous": false,
      "inputs": [
        {
          "indexed": false,
          "internalType": "uint256",
          "name": "_tokenId",
          "type": "uint256"
        }
      ],
      "name": "MetadataUpdate",
      "type": "event"
    },
    {
      "anonymous": false,
      "inputs": [
        {
          "indexed": true,
          "internalType": "address",
          "name": "previousOwner",
          "type": "address"
        },
        {
          "indexed": true,
          "internalType": "address",
          "name": "newOwner",
          "type": "address"
        }
      ],
      "name": "OwnershipTransferred",
      "type": "event"
    },
    {
      "anonymous": false,
      "inputs": [
        {
          "indexed": true,
          "internalType": "address",
          "name": "from",
          "type": "address"
        },
        {
          "indexed": true,
          "internalType": "address",
          "name": "to",
          "type": "address"
        },
        {
          "indexed": true,
          "internalType": "uint256",
          "name": "tokenId",
          "type": "uint256"
        }
      ],
      "name": "Transfer",
      "type": "event"
    },
    {
      "inputs": [
        {
          "internalType": "address",
          "name": "to",
          "type": "address"
        },
        {
          "internalType": "uint256",
          "name": "tokenId",
          "type": "uint256"
        }
      ],
      "name": "approve",
      "outputs": [],
      "stateMutability": "nonpayable",
      "type": "function"
    },
    {
      "inputs": [
        {
          "internalType": "address",
          "name": "owner",
          "type": "address"
        }
      ],
      "name": "balanceOf",
      "outputs": [
        {
          "internalType": "uint256",
          "name": "",
          "type": "uint256"
        }
      ],
      "stateMutability": "view",
      "type": "function"
    },
    {
      "inputs": [
        {
          "internalType": "uint256",
          "name": "tokenId",
          "type": "uint256"
        }
      ],
      "name": "getApproved",
      "outputs": [
        {
          "internalType": "address",
          "name": "",
          "type": "address"
        }
      ],
      "stateMutability": "view",
      "type": "function"
    },
    {
      "inputs": [
        {
          "internalType": "address",
          "name": "owner",
          "type": "address"
        },
        {
          "internalType": "address",
          "name": "operator",
          "type": "address"
        }
      ],
      "name": "isApprovedForAll",
      "outputs": [
        {
          "internalType": "bool",
          "name": "",
          "type": "bool"
        }
      ],
      "stateMutability": "view",
      "type": "function"
    },
    {
      "inputs": [
        {
          "internalType": "address",
          "name": "to",
          "type": "address"
        },
        {
          "internalType": "string",
          "name": "tokenURI",
          "type": "string"
        }
      ],
      "name": "mint",
      "outputs": [
        {
          "internalType": "uint256",
          "name": "",
          "type": "uint256"
        }
      ],
      "stateMutability": "nonpayable",
      "type": "function"
    },
    {
      "inputs": [],
      "name": "name",
      "outputs": [
        {
          "internalType": "string",
          "name": "",
          "type": "string"
        }
      ],
      "stateMutability": "view",
      "type": "function"
    },
    {
      "inputs": [],
      "name": "nextTokenId",
      "outputs": [
        {
          "internalType": "uint256",
          "name": "",
          "type": "uint256"
        }
      ],
      "stateMutability": "view",
      "type": "function"
    },
    {
      "inputs": [],
      "name": "owner",
      "outputs": [
        {
          "internalType": "address",
          "name": "",
          "type": "address"
        }
      ],
      "stateMutability": "view",
      "type": "function"
    },
    {
      "inputs": [
        {
          "internalType": "uint256",
          "name": "tokenId",
          "type": "uint256"
        }
      ],
      "name": "ownerOf",
      "outputs": [
        {
          "internalType": "address",
          "name": "",
          "type": "address"
        }
      ],
      "stateMutability": "view",
      "type": "function"
    },
    {
      "inputs": [],
      "name": "renounceOwnership",
      "outputs": [],
      "stateMutability": "nonpayable",
      "type": "function"
    },
    {
      "inputs": [
        {
          "internalType": "address",
          "name": "from",
          "type": "address"
        },
        {
          "internalType": "address",
          "name": "to",
          "type": "address"
        },
        {
          "internalType": "uint256",
          "name": "tokenId",
          "type": "uint256"
        }
      ],
      "name": "safeTransferFrom",
      "outputs": [],
      "stateMutability": "nonpayable",
      "type": "function"
    },
    {
      "inputs": [
        {
          "internalType": "address",
          "name": "from",
          "type": "address"
        },
        {
          "internalType": "address",
          "name": "to",
          "type": "address"
        },
        {
          "internalType": "uint256",
          "name": "tokenId",
          "type": "uint256"
        },
        {
          "internalType": "bytes",
          "name": "data",
          "type": "bytes"
        }
      ],
      "name": "safeTransferFrom",
      "outputs": [],
      "stateMutability": "nonpayable",
      "type": "function"
    },
    {
      "inputs": [
        {
          "internalType": "address",
          "name": "operator",
          "type": "address"
        },
        {
          "internalType": "bool",
          "name": "approved",
          "type": "bool"
        }
      ],
      "name": "setApprovalForAll",
      "outputs": [],
      "stateMutability": "nonpayable",
      "type": "function"
    },
    {
      "inputs": [
        {
          "internalType": "bytes4",
          "name": "interfaceId",
          "type": "bytes4"
        }
      ],
      "name": "supportsInterface",
      "outputs": [
        {
          "internalType": "bool",
          "name": "",
          "type": "bool"
        }
      ],
      "stateMutability": "view",
      "type": "function"
    },
    {
      "inputs": [],
      "name": "symbol",
      "outputs": [
        {
          "internalType": "string",
          "name": "",
          "type": "string"
        }
      ],
      "stateMutability": "view",
      "type": "function"
    },
    {
      "inputs": [
        {
          "internalType": "uint256",
          "name": "tokenId",
          "type": "uint256"
        }
      ],
      "name": "tokenURI",
      "outputs": [
        {
          "internalType": "string",
          "name": "",
          "type": "string"
        }
      ],
      "stateMutability": "view",
      "type": "function"
    },
    {
      "inputs": [
        {
          "internalType": "address",
          "name": "from",
          "type": "address"
        },
        {
          "internalType": "address",
          "name": "to",
          "type": "address"
        },
        {
          "internalType": "uint256",
          "name": "tokenId",
          "type": "uint256"
        }
      ],
      "name": "transferFrom",
      "outputs": [],
      "stateMutability": "nonpayable",
      "type": "function"
    },
    {
      "inputs": [
        {
          "internalType": "address",
          "name": "newOwner",
          "type": "address"
        }
      ],
      "name": "transferOwnership",
      "outputs": [],
      "stateMutability": "nonpayable",
      "type": "function"
    }
  ],
  "bytecode": "0x60806040523480156200001157600080fd5b506040518060400160405280601281526020017f5772697465546f4561726e436f6e74656e7400000000000000000000000000008152506040518060400160405280600481526020017f575445430000000000000000000000000000000000000000000000000000000081525081600090816200008f919062000412565b508060019081620000a1919062000412565b505050620000c4620000b8620000ca60201b60201c565b620000d260201b60201c565b620004f9565b600033905090565b6000600760009054906101000a900473ffffffffffffffffffffffffffffffffffffffff16905081600760006101000a81548173ffffffffffffffffffffffffffffffffffffffff021916908373ffffffffffffffffffffffffffffffffffffffff1602179055508173ffffffffffffffffffffffffffffffffffffffff168173ffffffffffffffffffffffffffffffffffffffff167f8be0079c531659141344cd1fd0a4f28419497f9722a3daafe3b4186f6b6457e060405160405180910390a35050565b600081519050919050565b7f4e487b7100000000000000000000000000000000000000000000000000000000600052604160045260246000fd5b7f4e487b7100000000000000000000000000000000000000000000000000000000600052602260045260246000fd5b600060028204905060018216806200021a57607f821691505b60208210810362000230576200022f620001d2565b5b50919050565b60008190508160005260206000209050919050565b60006020601f8301049050919050565b600082821b905092915050565b6000600883026200029a7fffffffffffffffffffffffffffffffffffffffffffffffffffffffffffffffff826200025b565b620002a686836200025b565b95508019841693508086168417925050509392505050565b6000819050919050565b6000819050919050565b6000620002f3620002ed620002e784620002be565b620002c8565b620002be565b9050919050565b6000819050919050565b6200030f83620002d2565b620003276200031e82620002fa565b84845462000268565b825550505050565b600090565b6200033e6200032f565b6200034b81848462000304565b505050565b5b8181101562000373576200036760008262000334565b60018101905062000351565b5050565b601f821115620003c2576200038c8162000236565b62000397846200024b565b81016020851015620003a7578190505b620003bf620003b6856200024b565b83018262000350565b50505b505050565b600082821c905092915050565b6000620003e760001984600802620003c7565b1980831691505092915050565b6000620004028383620003d4565b9150826002028217905092915050565b6200041d8262000198565b67ffffffffffffffff811115620004395762000438620001a3565b5b62000445825462000201565b6200045282828562000377565b600060209050601f8311600181146200048a576000841562000475578287015190505b620004818582620003f4565b865550620004f1565b601f1984166200049a8662000236565b60005b82811015620004c4578489015182556001820191506020850194506020810190506200049d565b86831015620004e45784890151620004e0601f891682620003d4565b8355505b6001600288020188555050505b505050505050565b612f4e80620005096000396000f3fe608060405234801561001057600080fd5b50600436106101165760003560e01c806375794a3c116100a2578063b88d4fde11610071578063b88d4fde146102cd578063c87b56dd146102e9578063d0def52114610319578063e985e9c514610349578063f2fde38b1461037957610116565b806375794a3c146102575780638da5cb5b1461027557806395d89b4114610293578063a22cb465146102b157610116565b806323b872dd116100e957806323b872dd146101b557806342842e0e146101d15780636352211e146101ed57806370a082311461021d578063715018a61461024d57610116565b806301ffc9a71461011b57806306fdde031461014b578063081812fc14610169578063095ea7b314610199575b600080fd5b61013560048036038101906101309190611cc8565b610395565b6040516101429190611d10565b60405180910390f35b6101536103f6565b6040516101609190611dbb565b60405180910390f35b610183600480360381019061017e9190611e13565b610488565b6040516101909190611e81565b60405180910390f35b6101b360048036038101906101ae9190611ec8565b6104ce565b005b6101cf60048036038101906101ca9190611f08565b6105e5565b005b6101eb60048036038101906101e69190611f08565b610645565b005b61020760048036038101906102029190611e13565b610665565b6040516102149190611e81565b60405180910390f35b61023760048036038101906102329190611f5b565b6106eb565b6040516102449190611f97565b60405180910390f35b6102556107a2565b005b61025f6107b6565b60405161026c9190611f97565b60405180910390f35b61027d6107bc565b60405161028a9190611e81565b60405180910390f35b61029b6107e6565b6040516102a89190611dbb565b60405180910390f35b6102cb60048036038101906102c69190611fde565b610878565b005b6102e760048036038101906102e29190612153565b61088e565b005b61030360048036038101906102fe9190611e13565b6108f0565b6040516103109190611dbb565b60405180910390f35b610333600480360381019061032e9190612277565b610a02565b6040516103409190611f97565b60405180910390f35b610363600480360381019061035e91906122d3565b610a45565b6040516103709190611d10565b60405180910390f35b610393600480360381019061038e9190611f5b565b610ad9565b005b6000634906490660e01b7bffffffffffffffffffffffffffffffffffffffffffffffffffffffff1916827bffffffffffffffffffffffffffffffffffffffffffffffffffffffff191614806103ef57506103ee82610b5c565b5b9050919050565b60606000805461040590612342565b80601f016020809104026020016040519081016040528092919081815260200182805461043190612342565b801561047e5780601f106104535761010080835404028352916020019161047e565b820191906000526020600020905b81548152906001019060200180831161046157829003601f168201915b5050505050905090565b600061049382610c3e565b6004600083815260200190815260200160002060009054906101000a900473ffffffffffffffffffffffffffffffffffffffff169050919050565b60006104d982610665565b90508073ffffffffffffffffffffffffffffffffffffffff168373ffffffffffffffffffffffffffffffffffffffff1603610549576040517f08c379a0000000000000000000000000000000000000000000000000000000008152600401610540906123e5565b60405180910390fd5b8073ffffffffffffffffffffffffffffffffffffffff16610568610c89565b73ffffffffffffffffffffffffffffffffffffffff161480610597575061059681610591610c89565b610a45565b5b6105d6576040517f08c379a00000000000000000000000000000000000000000000000000000000081526004016105cd90612477565b60405180910390fd5b6105e08383610c91565b505050565b6105f66105f0610c89565b82610d4a565b610635576040517f08c379a000000000000000000000000000000000000000000000000000000000815260040161062c90612509565b60405180910390fd5b610640838383610ddf565b505050565b6106608383836040518060200160405280600081525061088e565b505050565b600080610671836110d8565b9050600073ffffffffffffffffffffffffffffffffffffffff168173ffffffffffffffffffffffffffffffffffffffff16036106e2576040517f08c379a00000000000000000000000000000000000000000000000000000000081526004016106d990612575565b60405180910390fd5b80915050919050565b60008073ffffffffffffffffffffffffffffffffffffffff168273ffffffffffffffffffffffffffffffffffffffff160361075b576040517f08c379a000000000000000000000000000000000000000000000000000000000815260040161075290612607565b60405180910390fd5b600360008373ffffffffffffffffffffffffffffffffffffffff1673ffffffffffffffffffffffffffffffffffffffff168152602001908152602001600020549050919050565b6107aa611115565b6107b46000611193565b565b60085481565b6000600760009054906101000a900473ffffffffffffffffffffffffffffffffffffffff16905090565b6060600180546107f590612342565b80601f016020809104026020016040519081016040528092919081815260200182805461082190612342565b801561086e5780601f106108435761010080835404028352916020019161086e565b820191906000526020600020905b81548152906001019060200180831161085157829003601f168201915b5050505050905090565b61088a610883610c89565b8383611259565b5050565b61089f610899610c89565b83610d4a565b6108de576040517f08c379a00000000000000000000000000000000000000000000000000000000081526004016108d590612509565b60405180910390fd5b6108ea848484846113c5565b50505050565b60606108fb82610c3e565b600060066000848152602001908152602001600020805461091b90612342565b80601f016020809104026020016040519081016040528092919081815260200182805461094790612342565b80156109945780601f1061096957610100808354040283529160200191610994565b820191906000526020600020905b81548152906001019060200180831161097757829003601f168201915b5050505050905060006109a5611421565b905060008151036109ba5781925050506109fd565b6000825111156109ef5780826040516020016109d7929190612663565b604051602081830303815290604052925050506109fd565b6109f884611438565b925050505b919050565b6000610a0c611115565b600060086000815480929190610a21906126b6565b919050559050610a3184826114a0565b610a3b81846114be565b8091505092915050565b6000600560008473ffffffffffffffffffffffffffffffffffffffff1673ffffffffffffffffffffffffffffffffffffffff16815260200190815260200160002060008373ffffffffffffffffffffffffffffffffffffffff1673ffffffffffffffffffffffffffffffffffffffff16815260200190815260200160002060009054906101000a900460ff16905092915050565b610ae1611115565b600073ffffffffffffffffffffffffffffffffffffffff168173ffffffffffffffffffffffffffffffffffffffff1603610b50576040517f08c379a0000000000000000000000000000000000000000000000000000000008152600401610b4790612770565b60405180910390fd5b610b5981611193565b50565b60007f80ac58cd000000000000000000000000000000000000000000000000000000007bffffffffffffffffffffffffffffffffffffffffffffffffffffffff1916827bffffffffffffffffffffffffffffffffffffffffffffffffffffffff19161480610c2757507f5b5e139f000000000000000000000000000000000000000000000000000000007bffffffffffffffffffffffffffffffffffffffffffffffffffffffff1916827bffffffffffffffffffffffffffffffffffffffffffffffffffffffff1916145b80610c375750610c3682611562565b5b9050919050565b610c47816115cc565b610c86576040517f08c379a0000000000000000000000000000000000000000000000000000000008152600401610c7d90612575565b60405180910390fd5b50565b600033905090565b816004600083815260200190815260200160002060006101000a81548173ffffffffffffffffffffffffffffffffffffffff021916908373ffffffffffffffffffffffffffffffffffffffff160217905550808273ffffffffffffffffffffffffffffffffffffffff16610d0483610665565b73ffffffffffffffffffffffffffffffffffffffff167f8c5be1e5ebec7d5bd14f71427d1e84f3dd0314c0f7b2291e5b200ac8c7c3b92560405160405180910390a45050565b600080610d5683610665565b90508073ffffffffffffffffffffffffffffffffffffffff168473ffffffffffffffffffffffffffffffffffffffff161480610d985750610d978185610a45565b5b80610dd657508373ffffffffffffffffffffffffffffffffffffffff16610dbe84610488565b73ffffffffffffffffffffffffffffffffffffffff16145b91505092915050565b8273ffffffffffffffffffffffffffffffffffffffff16610dff82610665565b73ffffffffffffffffffffffffffffffffffffffff1614610e55576040517f08c379a0000000000000000000000000000000000000000000000000000000008152600401610e4c90612802565b60405180910390fd5b600073ffffffffffffffffffffffffffffffffffffffff168273ffffffffffffffffffffffffffffffffffffffff1603610ec4576040517f08c379a0000000000000000000000000000000000000000000000000000000008152600401610ebb90612894565b60405180910390fd5b610ed1838383600161160d565b8273ffffffffffffffffffffffffffffffffffffffff16610ef182610665565b73ffffffffffffffffffffffffffffffffffffffff1614610f47576040517f08c379a0000000000000000000000000000000000000000000000000000000008152600401610f3e90612802565b60405180910390fd5b6004600082815260200190815260200160002060006101000a81549073ffffffffffffffffffffffffffffffffffffffff02191690556001600360008573ffffffffffffffffffffffffffffffffffffffff1673ffffffffffffffffffffffffffffffffffffffff168152602001908152602001600020600082825403925050819055506001600360008473ffffffffffffffffffffffffffffffffffffffff1673ffffffffffffffffffffffffffffffffffffffff16815260200190815260200160002060008282540192505081905550816002600083815260200190815260200160002060006101000a81548173ffffffffffffffffffffffffffffffffffffffff021916908373ffffffffffffffffffffffffffffffffffffffff160217905550808273ffffffffffffffffffffffffffffffffffffffff168473ffffffffffffffffffffffffffffffffffffffff167fddf252ad1be2c89b69c2b068fc378daa952ba7f163c4a11628f55a4df523b3ef60405160405180910390a46110d38383836001611613565b505050565b60006002600083815260200190815260200160002060009054906101000a900473ffffffffffffffffffffffffffffffffffffffff169050919050565b61111d610c89565b73ffffffffffffffffffffffffffffffffffffffff1661113b6107bc565b73ffffffffffffffffffffffffffffffffffffffff1614611191576040517f08c379a000000000000000000000000000000000000000000000000000000000815260040161118890612900565b60405180910390fd5b565b6000600760009054906101000a900473ffffffffffffffffffffffffffffffffffffffff16905081600760006101000a81548173ffffffffffffffffffffffffffffffffffffffff021916908373ffffffffffffffffffffffffffffffffffffffff1602179055508173ffffffffffffffffffffffffffffffffffffffff168173ffffffffffffffffffffffffffffffffffffffff167f8be0079c531659141344cd1fd0a4f28419497f9722a3daafe3b4186f6b6457e060405160405180910390a35050565b8173ffffffffffffffffffffffffffffffffffffffff168373ffffffffffffffffffffffffffffffffffffffff16036112c7576040517f08c379a00000000000000000000000000000000000000000000000000000000081526004016112be9061296c565b60405180910390fd5b80600560008573ffffffffffffffffffffffffffffffffffffffff1673ffffffffffffffffffffffffffffffffffffffff16815260200190815260200160002060008473ffffffffffffffffffffffffffffffffffffffff1673ffffffffffffffffffffffffffffffffffffffff16815260200190815260200160002060006101000a81548160ff0219169083151502179055508173ffffffffffffffffffffffffffffffffffffffff168373ffffffffffffffffffffffffffffffffffffffff167f17307eab39ab6107e8899845ad3d59bd9653f200f220920489ca2b5937696c31836040516113b89190611d10565b60405180910390a3505050565b6113d0848484610ddf565b6113dc84848484611619565b61141b576040517f08c379a0000000000000000000000000000000000000000000000000000000008152600401611412906129fe565b60405180910390fd5b50505050565b606060405180602001604052806000815250905090565b606061144382610c3e565b600061144d611421565b9050600081511161146d5760405180602001604052806000815250611498565b80611477846117a0565b604051602001611488929190612663565b6040516020818303038152906040525b915050919050565b6114ba82826040518060200160405280600081525061186e565b5050565b6114c7826115cc565b611506576040517f08c379a00000000000000000000000000000000000000000000000000000000081526004016114fd90612a90565b60405180910390fd5b806006600084815260200190815260200160002090816115269190612c5c565b507ff8e1a15aba9398e019f0b49df1a4fde98ee17ae345cb5f6b5e2c27f5033e8ce7826040516115569190611f97565b60405180910390a15050565b60007f01ffc9a7000000000000000000000000000000000000000000000000000000007bffffffffffffffffffffffffffffffffffffffffffffffffffffffff1916827bffffffffffffffffffffffffffffffffffffffffffffffffffffffff1916149050919050565b60008073ffffffffffffffffffffffffffffffffffffffff166115ee836110d8565b73ffffffffffffffffffffffffffffffffffffffff1614159050919050565b50505050565b50505050565b600061163a8473ffffffffffffffffffffffffffffffffffffffff166118c9565b15611793578373ffffffffffffffffffffffffffffffffffffffff1663150b7a02611663610c89565b8786866040518563ffffffff1660e01b81526004016116859493929190612d83565b6020604051808303816000875af19250505080156116c157506040513d601f19601f820116820180604052508101906116be9190612de4565b60015b611743573d80600081146116f1576040519150601f19603f3d011682016040523d82523d6000602084013e6116f6565b606091505b50600081510361173b576040517f08c379a0000000000000000000000000000000000000000000000000000000008152600401611732906129fe565b60405180910390fd5b805181602001fd5b63150b7a0260e01b7bffffffffffffffffffffffffffffffffffffffffffffffffffffffff1916817bffffffffffffffffffffffffffffffffffffffffffffffffffffffff191614915050611798565b600190505b949350505050565b6060600060016117af846118ec565b01905060008167ffffffffffffffff8111156117ce576117cd612028565b5b6040519080825280601f01601f1916602001820160405280156118005781602001600182028036833780820191505090505b509050600082602001820190505b600115611863578080600190039150507f3031323334353637383961626364656600000000000000000000000000000000600a86061a8153600a858161185757611856612e11565b5b0494506000850361180e575b819350505050919050565b6118788383611a3f565b6118856000848484611619565b6118c4576040517f08c379a00000000000000000000000000000000000000000000000000000000081526004016118bb906129fe565b60405180910390fd5b505050565b6000808273ffffffffffffffffffffffffffffffffffffffff163b119050919050565b600080600090507a184f03e93ff9f4daa797ed6e38ed64bf6a1f010000000000000000831061194a577a184f03e93ff9f4daa797ed6e38ed64bf6a1f01000000000000000083816119405761193f612e11565b5b0492506040810190505b6d04ee2d6d415b85acef81000000008310611987576d04ee2d6d415b85acef8100000000838161197d5761197c612e11565b5b0492506020810190505b662386f26fc1000083106119b657662386f26fc1000083816119ac576119ab612e11565b5b0492506010810190505b6305f5e10083106119df576305f5e10083816119d5576119d4612e11565b5b0492506008810190505b6127108310611a045761271083816119fa576119f9612e11565b5b0492506004810190505b60648310611a275760648381611a1d57611a1c612e11565b5b0492506002810190505b600a8310611a36576001810190505b80915050919050565b600073ffffffffffffffffffffffffffffffffffffffff168273ffffffffffffffffffffffffffffffffffffffff1603611aae576040517f08c379a0000000000000000000000000000000000000000000000000000000008152600401611aa590612e8c565b60405180910390fd5b611ab7816115cc565b15611af7576040517f08c379a0000000000000000000000000000000000000000000000000000000008152600401611aee90612ef8565b60405180910390fd5b611b0560008383600161160d565b611b0e816115cc565b15611b4e576040517f08c379a0000000000000000000000000000000000000000000000000000000008152600401611b4590612ef8565b60405180910390fd5b6001600360008473ffffffffffffffffffffffffffffffffffffffff1673ffffffffffffffffffffffffffffffffffffffff16815260200190815260200160002060008282540192505081905550816002600083815260200190815260200160002060006101000a81548173ffffffffffffffffffffffffffffffffffffffff021916908373ffffffffffffffffffffffffffffffffffffffff160217905550808273ffffffffffffffffffffffffffffffffffffffff16600073ffffffffffffffffffffffffffffffffffffffff167fddf252ad1be2c89b69c2b068fc378daa952ba7f163c4a11628f55a4df523b3ef60405160405180910390a4611c58600083836001611613565b5050565b6000604051905090565b600080fd5b600080fd5b60007fffffffff0000000000000000000000000000000000000000000000000000000082169050919050565b611ca581611c70565b8114611cb057600080fd5b50565b600081359050611cc281611c9c565b92915050565b600060208284031215611cde57611cdd611c66565b5b6000611cec84828501611cb3565b91505092915050565b60008115159050919050565b611d0a81611cf5565b82525050565b6000602082019050611d256000830184611d01565b92915050565b600081519050919050565b600082825260208201905092915050565b60005b83811015611d65578082015181840152602081019050611d4a565b60008484015250505050565b6000601f19601f8301169050919050565b6000611d8d82611d2b565b611d978185611d36565b9350611da7818560208601611d47565b611db081611d71565b840191505092915050565b60006020820190508181036000830152611dd58184611d82565b905092915050565b6000819050919050565b611df081611ddd565b8114611dfb57600080fd5b50565b600081359050611e0d81611de7565b92915050565b600060208284031215611e2957611e28611c66565b5b6000611e3784828501611dfe565b91505092915050565b600073ffffffffffffffffffffffffffffffffffffffff82169050919050565b6000611e6b82611e40565b9050919050565b611e7b81611e60565b82525050565b6000602082019050611e966000830184611e72565b92915050565b611ea581611e60565b8114611eb057600080fd5b50565b600081359050611ec281611e9c565b92915050565b60008060408385031215611edf57611ede611c66565b5b6000611eed85828601611eb3565b9250506020611efe85828601611dfe565b9150509250929050565b600080600060608486031215611f2157611f20611c66565b5b6000611f2f86828701611eb3565b9350506020611f4086828701611eb3565b9250506040611f5186828701611dfe565b9150509250925092565b600060208284031215611f7157611f70611c66565b5b6000611f7f84828501611eb3565b91505092915050565b611f9181611ddd565b82525050565b6000602082019050611fac6000830184611f88565b92915050565b611fbb81611cf5565b8114611fc657600080fd5b50565b600081359050611fd881611fb2565b92915050565b60008060408385031215611ff557611ff4611c66565b5b600061200385828601611eb3565b925050602061201485828601611fc9565b9150509250929050565b600080fd5b600080fd5b7f4e487b7100000000000000000000000000000000000000000000000000000000600052604160045260246000fd5b61206082611d71565b810181811067ffffffffffffffff8211171561207f5761207e612028565b5b80604052505050565b6000612092611c5c565b905061209e8282612057565b919050565b600067ffffffffffffffff8211156120be576120bd612028565b5b6120c782611d71565b9050602081019050919050565b82818337600083830152505050565b60006120f66120f1846120a3565b612088565b90508281526020810184848401111561211257612111612023565b5b61211d8482856120d4565b509392505050565b600082601f83011261213a5761213961201e565b5b813561214a8482602086016120e3565b91505092915050565b6000806000806080858703121561216d5761216c611c66565b5b600061217b87828801611eb3565b945050602061218c87828801611eb3565b935050604061219d87828801611dfe565b925050606085013567ffffffffffffffff8111156121be576121bd611c6b565b5b6121ca87828801612125565b91505092959194509250565b600067ffffffffffffffff8211156121f1576121f0612028565b5b6121fa82611d71565b9050602081019050919050565b600061221a612215846121d6565b612088565b90508281526020810184848401111561223657612235612023565b5b6122418482856120d4565b509392505050565b600082601f83011261225e5761225d61201e565b5b813561226e848260208601612207565b91505092915050565b6000806040838503121561228e5761228d611c66565b5b600061229c85828601611eb3565b925050602083013567ffffffffffffffff8111156122bd576122bc611c6b565b5b6122c985828601612249565b9150509250929050565b600080604083850312156122ea576122e9611c66565b5b60006122f885828601611eb3565b925050602061230985828601611eb3565b9150509250929050565b7f4e487b7100000000000000000000000000000000000000000000000000000000600052602260045260246000fd5b6000600282049050600182168061235a57607f821691505b60208210810361236d5761236c612313565b5b50919050565b7f4552433732313a20617070726f76616c20746f2063757272656e74206f776e6560008201527f7200000000000000000000000000000000000000000000000000000000000000602082015250565b60006123cf602183611d36565b91506123da82612373565b604082019050919050565b600060208201905081810360008301526123fe816123c2565b9050919050565b7f4552433732313a20617070726f76652063616c6c6572206973206e6f7420746f60008201527f6b656e206f776e6572206f7220617070726f76656420666f7220616c6c000000602082015250565b6000612461603d83611d36565b915061246c82612405565b604082019050919050565b6000602082019050818103600083015261249081612454565b9050919050565b7f4552433732313a2063616c6c6572206973206e6f7420746f6b656e206f776e6560008201527f72206f7220617070726f76656400000000000000000000000000000000000000602082015250565b60006124f3602d83611d36565b91506124fe82612497565b604082019050919050565b60006020820190508181036000830152612522816124e6565b9050919050565b7f4552433732313a20696e76616c696420746f6b656e2049440000000000000000600082015250565b600061255f601883611d36565b915061256a82612529565b602082019050919050565b6000602082019050818103600083015261258e81612552565b9050919050565b7f4552433732313a2061646472657373207a65726f206973206e6f74206120766160008201527f6c6964206f776e65720000000000000000000000000000000000000000000000602082015250565b60006125f1602983611d36565b91506125fc82612595565b604082019050919050565b60006020820190508181036000830152612620816125e4565b9050919050565b600081905092915050565b600061263d82611d2b565b6126478185612627565b9350612657818560208601611d47565b80840191505092915050565b600061266f8285612632565b915061267b8284612632565b91508190509392505050565b7f4e487b7100000000000000000000000000000000000000000000000000000000600052601160045260246000fd5b60006126c182611ddd565b91507fffffffffffffffffffffffffffffffffffffffffffffffffffffffffffffffff82036126f3576126f2612687565b5b600182019050919050565b7f4f776e61626c653a206e6577206f776e657220697320746865207a65726f206160008201527f6464726573730000000000000000000000000000000000000000000000000000602082015250565b600061275a602683611d36565b9150612765826126fe565b604082019050919050565b600060208201905081810360008301526127898161274d565b9050919050565b7f4552433732313a207472616e736665722066726f6d20696e636f72726563742060008201527f6f776e6572000000000000000000000000000000000000000000000000000000602082015250565b60006127ec602583611d36565b91506127f782612790565b604082019050919050565b6000602082019050818103600083015261281b816127df565b9050919050565b7f4552433732313a207472616e7366657220746f20746865207a65726f2061646460008201527f7265737300000000000000000000000000000000000000000000000000000000602082015250565b600061287e602483611d36565b915061288982612822565b604082019050919050565b600060208201905081810360008301526128ad81612871565b9050919050565b7f4f776e61626c653a2063616c6c6572206973206e6f7420746865206f776e6572600082015250565b60006128ea602083611d36565b91506128f5826128b4565b602082019050919050565b60006020820190508181036000830152612919816128dd565b9050919050565b7f4552433732313a20617070726f766520746f2063616c6c657200000000000000600082015250565b6000612956601983611d36565b915061296182612920565b602082019050919050565b6000602082019050818103600083015261298581612949565b9050919050565b7f4552433732313a207472616e7366657220746f206e6f6e20455243373231526560008201527f63656976657220696d706c656d656e7465720000000000000000000000000000602082015250565b60006129e8603283611d36565b91506129f38261298c565b604082019050919050565b60006020820190508181036000830152612a17816129db565b9050919050565b7f45524337323155524953746f726167653a2055524920736574206f66206e6f6e60008201527f6578697374656e7420746f6b656e000000000000000000000000000000000000602082015250565b6000612a7a602e83611d36565b9150612a8582612a1e565b604082019050919050565b60006020820190508181036000830152612aa981612a6d565b9050919050565b60008190508160005260206000209050919050565b60006020601f8301049050919050565b600082821b905092915050565b600060088302612b127fffffffffffffffffffffffffffffffffffffffffffffffffffffffffffffffff82612ad5565b612b1c8683612ad5565b95508019841693508086168417925050509392505050565b6000819050919050565b6000612b59612b54612b4f84611ddd565b612b34565b611ddd565b9050919050565b6000819050919050565b612b7383612b3e565b612b87612b7f82612b60565b848454612ae2565b825550505050565b600090565b612b9c612b8f565b612ba7818484612b6a565b505050565b5b81811015612bcb57612bc0600082612b94565b600181019050612bad565b5050565b601f821115612c1057612be181612ab0565b612bea84612ac5565b81016020851015612bf9578190505b612c0d612c0585612ac5565b830182612bac565b50505b505050565b600082821c905092915050565b6000612c3360001984600802612c15565b1980831691505092915050565b6000612c4c8383612c22565b9150826002028217905092915050565b612c6582611d2b565b67ffffffffffffffff811115612c7e57612c7d612028565b5b612c888254612342565b612c93828285612bcf565b600060209050601f831160018114612cc65760008415612cb4578287015190505b612cbe8582612c40565b865550612d26565b601f198416612cd486612ab0565b60005b82811015612cfc57848901518255600182019150602085019450602081019050612cd7565b86831015612d195784890151612d15601f891682612c22565b8355505b6001600288020188555050505b505050505050565b600081519050919050565b600082825260208201905092915050565b6000612d5582612d2e565b612d5f8185612d39565b9350612d6f818560208601611d47565b612d7881611d71565b840191505092915050565b6000608082019050612d986000830187611e72565b612da56020830186611e72565b612db26040830185611f88565b8181036060830152612dc48184612d4a565b905095945050505050565b600081519050612dde81611c9c565b92915050565b600060208284031215612dfa57612df9611c66565b5b6000612e0884828501612dcf565b91505092915050565b7f4e487b7100000000000000000000000000000000000000000000000000000000600052601260045260246000fd5b7f4552433732313a206d696e7420746f20746865207a65726f2061646472657373600082015250565b6000612e76602083611d36565b9150612e8182612e40565b602082019050919050565b60006020820190508181036000830152612ea581612e69565b9050919050565b7f4552433732313a20746f6b656e20616c7265616479206d696e74656400000000600082015250565b6000612ee2601c83611d36565b9150612eed82612eac565b602082019050919050565b60006020820190508181036000830152612f1181612ed5565b905091905056fea264697066735822122029b3eb4f72c7136254bcb04a78cbc916f0735de40a83b156783532436ad1b8ea64736f6c63430008140033",
  "linkReferences": {},
  "deployedLinkReferences": {}
}