{
  "_format": "hh-sol-artifact-1",
  "contractName": "LikeReward",
  "sourceName": "contracts/LikeReward.sol",
  "abi": [
    {
      "inputs": [
        {
          "internalType": "address",
          "name": "tokenAddr",
          "type": "address"
        },
        {
          "internalType": "address",
          "name": "nftAddr",
          "type": "address"
        }
      ],
      "stateMutability": "nonpayable",
      "type": "constructor"
    },
    {
      "anonymous": false,
      "inputs": [
        {
          "indexed": true,
          "internalType": "uint256",
          "name": "tokenId",
          "type": "uint256"
        },
        {
          "indexed": true,
          "internalType": "address",
          "name": "user",
          "type": "address"
        }
      ],
      "name": "Liked",
      "type": "event"
    },
    {
      "anonymous": false,
      "inputs": [
        {
          "indexed": true,
          "internalType": "uint256",
          "name": "tokenId",
          "type": "uint256"
        },
        {
          "indexed": true,
          "internalType": "address",
          "name": "author",
          "type": "address"
        },
        {
          "indexed": false,
          "internalType": "uint256",
          "name": "amount",
          "type": "uint256"
        }
      ],
      "name": "Rewarded",
      "type": "event"
    },
    {
      "inputs": [
        {
          "internalType": "uint256",
          "name": "tokenId",
          "type": "uint256"
        }
      ],
      "name": "like",
      "outputs": [],
      "stateMutability": "nonpayable",
      "type": "function"
    },
    {
      "inputs": [
        {
          "internalType": "uint256",
          "name": "",
          "type": "uint256"
        },
        {
          "internalType": "address",
          "name": "",
          "type": "address"
        }
      ],
      "name": "likedBy",
      "outputs": [
        {
          "internalType": "bool",
          "name": "",
          "type": "bool"
        }
      ],
      "stateMutability": "view",
      "type": "function"
    },
    {
      "inputs": [
        {
          "internalType": "uint256",
          "name": "",
          "type": "uint256"
        }
      ],
      "name": "likes",
      "outputs": [
        {
          "internalType": "uint256",
          "name": "",
          "type": "uint256"
        }
      ],
      "stateMutability": "view",
      "type": "function"
    },
    {
      "inputs": [],
      "name": "nft",
      "outputs": [
        {
          "internalType": "contract ContentNFT",
          "name": "",
          "type": "address"
        }
      ],
      "stateMutability": "view",
      "type": "function"
    },
    {
      "inputs": [
        {
          "internalType": "uint256",
          "name": "tokenId",
          "type": "uint256"
        }
      ],
      "name": "rewardAuthor",
      "outputs": [],
      "stateMutability": "nonpayable",
      "type": "function"
    },
    {
      "inputs": [],
      "name": "rewardPerLike",
      "outputs": [
        {
          "internalType": "uint256",
          "name": "",
          "type": "uint256"
        }
      ],
      "stateMutability": "view",
      "type": "function"
    },
    {
      "inputs": [],
      "name": "token",
      "outputs": [
        {
          "internalType": "contract WTEtoken",
          "name": "",
          "type": "address"
        }
      ],
      "stateMutability": "view",
      "type": "function"
    }
  ],
  "bytecode": "0x6080604052678ac7230489e8000060045534801561001c57600080fd5b50604051610b51380380610b51833981810160405281019061003e9190610129565b816000806101000a81548173ffffffffffffffffffffffffffffffffffffffff021916908373ffffffffffffffffffffffffffffffffffffffff16021790555080600160006101000a81548173ffffffffffffffffffffffffffffffffffffffff021916908373ffffffffffffffffffffffffffffffffffffffff1602179055505050610169565b600080fd5b600073ffffffffffffffffffffffffffffffffffffffff82169050919050565b60006100f6826100cb565b9050919050565b610106816100eb565b811461011157600080fd5b50565b600081519050610123816100fd565b92915050565b600080604083850312156101405761013f6100c6565b5b600061014e85828601610114565b925050602061015f85828601610114565b9150509250929050565b6109d9806101786000396000f3fe608060405234801561001057600080fd5b506004361061007d5760003560e01c8063a147e8c41161005b578063a147e8c4146100ee578063c0a199631461010a578063e82935da1461013a578063fc0c546a146101565761007d565b806347ccca02146100825780637e9dffe6146100a057806395646fd9146100d0575b600080fd5b61008a610174565b60405161009791906105ea565b60405180910390f35b6100ba60048036038101906100b59190610640565b61019a565b6040516100c7919061067c565b60405180910390f35b6100d86101b2565b6040516100e5919061067c565b60405180910390f35b61010860048036038101906101039190610640565b6101b8565b005b610124600480360381019061011f91906106d5565b6103a1565b6040516101319190610730565b60405180910390f35b610154600480360381019061014f9190610640565b6103d0565b005b61015e610547565b60405161016b919061076c565b60405180910390f35b600160009054906101000a900473ffffffffffffffffffffffffffffffffffffffff1681565b60026020528060005260406000206000915090505481565b60045481565b6000600160009054906101000a900473ffffffffffffffffffffffffffffffffffffffff1673ffffffffffffffffffffffffffffffffffffffff16636352211e836040518263ffffffff1660e01b8152600401610215919061067c565b602060405180830381865afa158015610232573d6000803e3d6000fd5b505050506040513d601f19601f82011682018060405250810190610256919061079c565b90506000600454600260008581526020019081526020016000205461027b91906107f8565b9050600081116102c0576040517f08c379a00000000000000000000000000000000000000000000000000000000081526004016102b790610897565b60405180910390fd5b60008054906101000a900473ffffffffffffffffffffffffffffffffffffffff1673ffffffffffffffffffffffffffffffffffffffff166340c10f1983836040518363ffffffff1660e01b815260040161031b9291906108c6565b600060405180830381600087803b15801561033557600080fd5b505af1158015610349573d6000803e3d6000fd5b505050508173ffffffffffffffffffffffffffffffffffffffff16837f6d46424d7308d93179bbc5c8c01e098e8353dad13aff9809fd8a881a69feaa3a83604051610394919061067c565b60405180910390a3505050565b60036020528160005260406000206020528060005260406000206000915091509054906101000a900460ff1681565b6003600082815260200190815260200160002060003373ffffffffffffffffffffffffffffffffffffffff1673ffffffffffffffffffffffffffffffffffffffff16815260200190815260200160002060009054906101000a900460ff161561046e576040517f08c379a00000000000000000000000000000000000000000000000000000000081526004016104659061093b565b60405180910390fd5b6002600082815260200190815260200160002060008154809291906104929061095b565b919050555060016003600083815260200190815260200160002060003373ffffffffffffffffffffffffffffffffffffffff1673ffffffffffffffffffffffffffffffffffffffff16815260200190815260200160002060006101000a81548160ff0219169083151502179055503373ffffffffffffffffffffffffffffffffffffffff16817f6790e8ded18c25977540ba89bbcefd83da7fbe624085856758cf343178c4d61260405160405180910390a350565b60008054906101000a900473ffffffffffffffffffffffffffffffffffffffff1681565b600073ffffffffffffffffffffffffffffffffffffffff82169050919050565b6000819050919050565b60006105b06105ab6105a68461056b565b61058b565b61056b565b9050919050565b60006105c282610595565b9050919050565b60006105d4826105b7565b9050919050565b6105e4816105c9565b82525050565b60006020820190506105ff60008301846105db565b92915050565b600080fd5b6000819050919050565b61061d8161060a565b811461062857600080fd5b50565b60008135905061063a81610614565b92915050565b60006020828403121561065657610655610605565b5b60006106648482850161062b565b91505092915050565b6106768161060a565b82525050565b6000602082019050610691600083018461066d565b92915050565b60006106a28261056b565b9050919050565b6106b281610697565b81146106bd57600080fd5b50565b6000813590506106cf816106a9565b92915050565b600080604083850312156106ec576106eb610605565b5b60006106fa8582860161062b565b925050602061070b858286016106c0565b9150509250929050565b60008115159050919050565b61072a81610715565b82525050565b60006020820190506107456000830184610721565b92915050565b6000610756826105b7565b9050919050565b6107668161074b565b82525050565b6000602082019050610781600083018461075d565b92915050565b600081519050610796816106a9565b92915050565b6000602082840312156107b2576107b1610605565b5b60006107c084828501610787565b91505092915050565b7f4e487b7100000000000000000000000000000000000000000000000000000000600052601160045260246000fd5b60006108038261060a565b915061080e8361060a565b925082820261081c8161060a565b91508282048414831517610833576108326107c9565b5b5092915050565b600082825260208201905092915050565b7f4e6f207265776172640000000000000000000000000000000000000000000000600082015250565b600061088160098361083a565b915061088c8261084b565b602082019050919050565b600060208201905081810360008301526108b081610874565b9050919050565b6108c081610697565b82525050565b60006040820190506108db60008301856108b7565b6108e8602083018461066d565b9392505050565b7f416c7265616479206c696b656400000000000000000000000000000000000000600082015250565b6000610925600d8361083a565b9150610930826108ef565b602082019050919050565b6000602082019050818103600083015261095481610918565b9050919050565b60006109668261060a565b91507fffffffffffffffffffffffffffffffffffffffffffffffffffffffffffffffff8203610998576109976107c9565b5b60018201905091905056fea26469706673582212201496273af0c56ec4bba0345ff8df01f5fd1bc2a0456f634ced189300e52ae6b364736f6c63430008140033",
  "linkReferences": {},
  "deployedLinkReferences": {}
}